:020000040800F2
:1000000068340120B5320008910600089306000804
:10001000970600089B0600089F06000800000000E5
:10002000000000000000000000000000290200089D
:10003000A3060008000000006D020008872C0008DD
:10004000CF320008CF320008CF320008CF3200088C
:10005000CF320008CF32000897050008CF320008E1
:10006000CF320008CF320008CF320008CF3200086C
:10007000CF320008CF320008CF320008CF3200085C
:10008000CF320008CF320008CF320008CF3200084C
:10009000CF320008CF320008CF320008CF3200083C
:1000A000CF320008CF320008CF320008CF3200082C
:1000B000CF320008CF320008CF320008CF3200081C
:1000C000CF320008CF320008CF320008CF3200080C
:1000D000CF320008CF320008CF320008CF320008FC
:1000E000CF320008CF320008A7060008CF32000840
:1000F000CF320008CF320008CF320008CF320008DC
:10010000CF320008CF320008CF320008CF320008CB
:10011000CF320008CF320008CF320008CF320008BB
:10012000CF320008CF320008CF320008CF320008AB
:10013000CF320008CF320008CF320008CF3200089B
:10014000CF320008CF320008CF320008A9060008DD
:10015000CF320008CF320008CF320008CF3200087B
:10016000CF320008CF320008CF320008CF3200086B
:10017000CF320008CF320008CF320008CF3200085B
:10018000CF320008CF32000800F002F800F03CF84F
:100190000AA090E8000C82448344AAF10107DA45E2
:1001A00001D100F031F8AFF2090EBAE80F0013F0F8
:1001B000010F18BFFB1A43F001031847A4360000D3
:1001C000C4360000103A24BF78C878C1FAD8520764
:1001D00024BF30C830C144BF04680C6070470000C1
:1001E0000023002400250026103A28BF78C1FBD840
:1001F000520728BF30C148BF0B6070471FB503F0DE
:100200000AFB1FBD10B510BD03F0CBFA1146FFF776
:10021000F5FF00F06FF903F0E9FA03B4FFF7F2FF1E
:1002200003BC03F0F1FA0000234B19680868B0E83A
:10023000F04F80F309884FF0000080F31188704779
:100240000000000003480068006880F3088862B678
:1002500000DF00BF08ED00E0DFF80C00016841F4AA
:1002600070010160704700BF88ED00E0EFF3098086
:10027000114B1A681EF0100F08BF20ED108A20E9FC
:10028000F04F106008B54FF0500080F3118801F076
:10029000B3FC4FF0000080F31188BDE808401968F6
:1002A0000868B0E8F04F1EF0100F08BFB0EC108ADD
:1002B00080F30988704700BF64000020EFF31180CD
:1002C0004FF0500181F31188704780F31188704717
:1002D000EFF3058070470000BE48006840F0807072
:1002E000BC4908600020BC4948600846006840F0EE
:1002F00001000860704700B585B00121084600F094
:1003000017FD0121880300F057FD01200390002014
:100310008DF810008DF8130003A9B04800F034FAEE
:100320000820039001208DF8100000208DF81300A4
:1003300003A9AA4800F028FA0021084600F0B4FEFC
:100340000120019000208DF8080010208DF8090090
:1003500001208DF80A0001A800F0E4FA06208DF8CB
:10036000000005208DF8010000208DF8020001201A
:100370008DF80300684600F01EFE05B000BD0A7847
:100380003AB1322801D932380BE000220A703230FB
:1003900007E0B0F5AF7F01D2323002E001220A70EF
:1003A000323870471FB534E000235A1E69468C4826
:1003B000006802F004F901282BD19DF8000030B14B
:1003C000012822D002281FD0032820D11EE001F0EE
:1003D0007DFD84490968401A824908607E4840686A
:1003E00081490968401A8149086008460068A821C7
:1003F000B0FBF1F07E4908607E497F480068FFF756
:10040000BEFF7D49086003E002E001E000E000BFBC
:1004100000BFC9E77FB505460121704800F016FA14
:1004200004467648006884422AD074480460012C4F
:1004300017D173480068401C7149086000208DF88E
:10044000000001F043FD01906D4800680290002318
:100450001A4669466248006801F0BCFF02F0EFFBF3
:100460000EE001208DF8000001F030FD0190002326
:100470001A4669465A48006801F0ACFF02F0DFFBFB
:100480007FBD1FB5002210210A2001F0EFFE544964
:1004900008600846006808B1012000E0002018B993
:1004A000FFF70CFF00BFFEE7AFF2970000231A46EC
:1004B0000121009053A002F0B0FE554908600846A3
:1004C000006808B1012000E0002018B9FFF7F6FE2F
:1004D00000BFFEE700204F4A0223CDE90120009330
:1004E000039003464FF480724BA1AFF2471001F026
:1004F0009DF91FBD00B589B005A800F084FB4FF43D
:10050000407000F053FD012001F014F8022001F0CA
:1005100011F8032001F00EF8002001F00BF8FFF7AE
:10052000B0FFFFF7E8FE0020009001900290034624
:1005300080223CA10390404801F078F9002000900F
:1005400001900290034680223CA10390404801F0B4
:100550006DF90020009001900290034680223DA199
:100560000390424801F062F900200090019002904F
:10057000034680223EA10390434801F057F9012031
:1005800001F0B5FF41490860FFF7A6FE01F070FCDD
:10059000002009B000BD1CB500200190012000F032
:1005A00027FAA8B1012000F034FA01F098FC0446C3
:1005B000002001AB2246014600901548006802F079
:1005C00099FC019820B14FF080500249F839086039
:1005D0001CBD0000FCED00E0001000E00000024047
:1005E00018000020080000200C0000202800002037
:1005F0002C00002024000020000000201C0000200F
:10060000200000204465626F756E63650000000085
:100610001400002010000020427574746F6E546145
:10062000736B00004C656420426C696E6B205461F2
:10063000736B20426C756500053500084C656420BD
:10064000426C696E6B205461736B205265640000CC
:10065000393500084C656420426C696E6B2054612A
:10066000736B204F72616E6765000000D93500081A
:100670004C656420426C696E6B205461736B20473B
:100680007265656E000000006D35000804000020F2
:10069000704700BFFEE700BFFEE700BFFEE700BFF8
:1006A000FEE77047704770477047000010B504467A
:1006B0008C48844208D10121084600F08EFB0021BD
:1006C000012000F08AFB5EE08748844208D10121C6
:1006D000022000F082FB0021022000F07EFB52E0AD
:1006E0008248844208D10121042000F076FB0021D9
:1006F000042000F072FB46E07D48844208D10121CD
:10070000082000F06AFB0021082000F066FB3AE0B8
:100710007848844208D10121102000F05EFB0021BE
:10072000102000F05AFB2EE07348844208D10121CA
:10073000202000F052FB0021202000F04EFB22E0A0
:100740006E48844208D10121402000F046FB002180
:10075000402000F042FB16E06948844208D10121A4
:10076000802000F03AFB0021802000F036FB0AE0F8
:100770006448844207D10121801500F02EFB00213E
:10078000A01500F02AFB10BDF0B50A460021002399
:10079000002400BF3DE0012505FA01F3156805EAD4
:1007A00003049C4234D105684F000326BE40B54384
:1007B000056015794E00B54006683543056015792A
:1007C000012D02D01579022D16D185684F00032620
:1007D000BE40B543856055794E00B54086683543C7
:1007E0008560456801268E40B54345604568967929
:1007F0008E40B6B235434560C5684F000326BE4003
:10080000B543C560D5794E00B540C6683543C5606F
:10081000491C1029BFD3F0BD4FF6FF7101600021C4
:10082000017141718171C171704708B54FF4803217
:100830000092009A0A430092009AC261C161009A34
:10084000C261C2690092C269009208BD02460020DE
:1008500013690B400BB1012000E0002070470146F6
:10086000086980B270470246002053690B400BB103
:10087000012000E0002070470146486980B27047BF
:1008800001837047418370470AB1018300E04183CF
:1008900070474161704742694A4042617047F0B514
:1008A000002300244D07ED0E02FA05F3CE1000F1EF
:1008B000200555F826504E07F70E0F26BE40B543CB
:1008C000CF1000F1200646F82750CE1000F1200589
:1008D00055F8265045EA0304CE1000F1200545F8EE
:1008E0002640F0BD00000240000402400008024023
:1008F000000C0240001002400014024000180240A8
:10090000001C024000200240002044490860091DEC
:100910000860091D0860091D086041483F491431FD
:100920000860704700213D498279002A3AD00A4682
:10093000126803689A430B461A600A1D126803681E
:100940009A430B1D1A60027911440A6803681A431E
:100950000A60324A0832126803689A432F4B083300
:100960001A601A1D126803689A432C4B0C331A60E4
:100970004279102A0ED11A1F126803681A43274BB6
:1009800008331A601A1D126803681A43234B0C338C
:100990001A600DE02149427911440A6803681A433C
:1009A0000A6005E0027911440A6803689A430A6004
:1009B00070470021016001710C214171002181719A
:1009C00070471649103109680143144A103211600A
:1009D000704701460020114A143212680A400AB1D9
:1009E000012000E0002070470C4914310860704776
:1009F000014600200022094B1B6803EA0102074B55
:100A000014331B680B4013B10AB1012000E0002031
:100A1000704702491431086070470000003C0140F3
:100A2000FFFF7F00FA48006840F00100F8490860C5
:100A30000020F74908310860F5480068F54908408A
:100A4000F3490860F448091D0860081F006820F495
:100A50008020091F08600020ED490C3108607047B4
:100A60000021EB4A921C117011460870704710B5B6
:100A700001460022002300204A11012A02D1E44C41
:100A8000236808E0022A03D1E14C7034236802E0B5
:100A9000DF4C7434236801F01F02012494401C4091
:100AA0000CB1012000E0002010BD38B500200090FE
:100AB0000024002500BF3120FFF7D9FF054600982C
:100AC000401C00900098B0F5A06F01D0002DF2D02E
:100AD0003120FFF7CCFF08B1012400E000242046BC
:100AE00038BD01460020CA4A106820F0F80040EAEC
:100AF000C10010607047C949086070470021C44AAE
:100B0000703211701170012802D004280AD104E05B
:100B10000121BF4A7032117005E00521BC4A7032D4
:100B2000117000E000BF00BF7047BD49086070470A
:100B300070B5049C41EA82150126C6EB530645EACE
:100B40000645054345EA0465B14E361D356070BD66
:100B5000B24908667047820142EA0172AC4B8433A5
:100B60001A607047AD4988667047AC49C8647047E1
:100B700002460020A64B0833186820F0EC6042EAD9
:100B800001031843A24B0833186070470246002047
:100B90009F4B0833186820F0784042EA010318435D
:100BA0009B4B08331860704701460020984A083272
:100BB000106820F003000843106070479448083024
:100BC000006800F00C00704701460020904A08328F
:100BD000106820F0F00008431060704701460020C4
:100BE0008B4A0832106820F4E050084310607047C8
:100BF00001460020864A0832106820F4604040EA2E
:100C0000C10010607047F0B50021002200240225C9
:100C1000002602237E4F08373F6807F00C0121B100
:100C2000042905D0082937D105E07E4F076036E05A
:100C30007D4F076033E0764F3F1D3F68C7F3805616
:100C4000734F3F1D3F6807F03F036EB1764FB7FB10
:100C5000F3F7DFF8BCC10CF1040CDCF800C0CCF3F6
:100C6000881C07FB0CF40CE06E4FB7FBF3F7DFF8C2
:100C7000A0C10CF1040CDCF800C0CCF3881C07FB0D
:100C80000CF4634F3F1D3F68C7F301477F1C7D0095
:100C9000B4FBF5F7076002E0624F076000BF00BFDA
:100CA0005B4F08373F6807F0F00109095F4F7A5C36
:100CB0000768D7404760564F08373F6807F4E05150
:100CC000890A5A4F7A5C4768D7408760504F083787
:100CD0003F6807F46041490B544F7A5C4768D7403E
:100CE000C760F0BD002100F44072B2F5407F0AD128
:100CF000474A0832116821F4F8114D4A0240114365
:100D0000434A08321160424A70321268C0F30B0342
:100D10001A433F4B70331A607047414944390860A9
:100D200070473F4940390860704742490860704742
:100D300039B1374A303212680243354B30331A60CA
:100D400006E0334A303212688243314B30331A6046
:100D5000704739B12E4A3432126802432C4B343377
:100D60001A6006E02A4A343212688243284B343330
:100D70001A60704739B1264A383212680243244B50
:100D800038331A6006E0224A383212688243204B18
:100D900038331A60704739B11D4A40321268024335
:100DA0001B4B40331A6006E0194A403212688243F6
:100DB000174B40331A60704739B1154A44321268F4
:100DC0000243134B44331A6006E0114A443212685E
:100DD00082430F4B44331A60704739B10C4A1032CA
:100DE000126802430A4B10331A6006E0084A1032B8
:100DF00012688243064B10331A607047E1B1044A0F
:100E0000143212680243024B14331A6019E00000D6
:100E100000380240FFFFF6FE103000240000474279
:100E2000800E47420024F40000127A0030000020B7
:100E3000FFFCFF0F5C0147425B4A126882435A4B3A
:100E40001A60704739B1584A121D12680243564B56
:100E50001B1D1A6006E0544A121D12688243524B51
:100E60001B1D1A60704739B14F4A0C321268024399
:100E70004D4B0C331A6006E04B4A0C321268824329
:100E8000494B0C331A60704739B1474A1032126827
:100E90000243454B10331A6006E0434A1032126891
:100EA0008243414B10331A60704739B13E4A3C329D
:100EB000126802433C4B3C331A6006E03A4A3C322B
:100EC00012688243384B3C331A60704739B1364A56
:100ED000403212680243344B40331A6006E0324A13
:100EE000403212688243304B40331A60704739B148
:100EF0002D4A4432126802432B4B44331A6006E0F9
:100F0000294A443212688243274B44331A6070479F
:100F100039B1254A4C3212680243234B4C331A60D4
:100F200006E0214A4C32126882431F4B4C331A6050
:100F3000704739B11C4A5032126802431A4B503381
:100F40001A6006E0184A503212688243164B50333A
:100F50001A60704739B1144AD21F12780243124BFB
:100F6000DB1F1A7006E0104AD21F127882430E4B24
:100F7000DB1F1A7070470C486030006840F08070CA
:100F8000094960310860704701460020064A083A66
:100F900012680A400AB1012000E0002070470249AF
:100FA000891F08707047000014380240324901431D
:100FB000324A1160704770B5002100230F22C478B7
:100FC0001CB32E4C246804F4E064C4F5E064C4F35C
:100FD0000721C1F10404E3B20A4144789C40E1B224
:100FE0008478144021430C07210E254C0578615567
:100FF000047804F01F050124AC4005786D11AD00A4
:1010000005F1E025C5F8004109E0047804F01F056A
:101010000124AC401B4D0678761145F8264070BD82
:10102000194A0A400243154B1B1F1A60704739B119
:10103000124A121D12680243104B1B1D1A6006E073
:101040000E4A121D126882430C4B1B1D1A6070471A
:10105000042808D14FF0E021096941F004014FF064
:10106000E022116107E04FF0E021096921F004015D
:101070004FF0E022116170470000FA050CED00E02E
:1010800000E400E080E100E080FFFF1F10B50121D7
:101090008803FFF7F9FE00214FF48040FFF7F4FECC
:1010A00010BD1A490860704730B500228B071C0F2D
:1010B0000F2303FA04F2154B08338C1053F8243035
:1010C0009343124C08348D1044F8253023468C107D
:1010D00053F824308C07240F00FA04F423430B4CFC
:1010E00008348D1044F8253030BD09490860704738
:1010F000084908607047002004492031096801F45C
:10110000807109B1012000E00020704700380140E3
:10111000DC0027420004274210B50446F748844209
:1011200008D101211020FFF7AFFE00211020FFF7AA
:10113000ABFE3EE0F248844209D101214804FFF7AA
:1011400092FE00214FF40030FFF78DFE31E0ED48B4
:10115000844209D101218804FFF785FE00214FF464
:101160008020FFF780FE24E0E748844209D1012176
:10117000C804FFF778FE00214FF40020FFF773FE4C
:1011800017E0E248844209D101210805FFF76BFE10
:1011900000214FF48010FFF766FE0AE0DC4884422D
:1011A00007D101212020FFF76FFE00212020FFF74B
:1011B0006BFE10BD2DE9FF4705460E460024A146F3
:1011C00000BFA046B08900B100BF2C8A24F440546F
:1011D000F08804432C82AC8941F20C608443B088CF
:1011E00031890843718908430443AC81AC8A24F4F3
:1011F0004074B0890443AC826846FFF704FDBF48E1
:10120000854202D0C248854202D1DDF80C9001E04F
:10121000DDF80890A88900F4004040B109EBC9004E
:1012200000EB091031684900B0FBF1F707E009EB6A
:10123000C90000EB091031688900B0FBF1F76420A8
:10124000B7FBF0F004012009642101FB1078A889A4
:1012500000F4004040B1322000EBC800B0FBF1F0D8
:1012600000F00700044308E0322000EB081064217E
:10127000B0FBF1F000F00F0004432C81BDE8FF87C4
:101280004FF41651016000218180C18001810C2141
:10129000418100218181704710B502460020108AEB
:1012A00020F470600B884C8823438C882343CC88BF
:1012B00023431843108210BD0021018041808180AA
:1012C000C180704721B1828942F40052828104E0DA
:1012D00082894DF6FF731A4082817047028B02F4B7
:1012E0007F420283028B0A430283704721B18289C5
:1012F00042F40042828103E08289C2F30E028281BD
:10130000704721B1828A42F40062828204E0828ABC
:101310004FF2FF731A4082827047C1F30802828045
:10132000704701468888C0F308007047028A4FF66C
:10133000F0731A400282028A0A430282704721B186
:10134000828942F00202828104E082894FF6FD73B5
:101350001A408281704782894FF2FF731A4082815E
:1013600082890A4382817047028A4FF6DF731A40EE
:101370000282028A0A430282704721B1028A42F441
:101380008042028204E0028A4BF6FF731A40028216
:101390007047818941F001018181704721B1828AC2
:1013A00042F00802828204E0828A4FF6F7731A4004
:1013B00082827047028BD2B20283028B42EA012200
:1013C0000283704721B1828A42F02002828204E0C7
:1013D000828A4FF6DF731A408282704721B1828A77
:1013E00042F01002828204E0828A4FF6EF731A40C4
:1013F00082827047828A4FF6FB731A408282828A09
:101400000A438282704721B1828A42F002028282BC
:1014100004E0828A4FF6FD731A40828270471AB147
:10142000838A0B43838202E0838A8B4383827047E3
:10143000F0B50346002400260025002040F66A1778
:10144000B94200D100BF1846C1F3421401F01F0693
:10145000012707FA06F5012C01D10C3004E0022C1B
:1014600001D1103000E014301AB107682F43076033
:1014700002E00768AF430760F0BD02460020B1F507
:10148000007F00D100BF13880B400BB1012000E0AA
:101490000020704701F40072B2F5007F00D100BF58
:1014A000CA430280704770B502460024002300251D
:1014B000002040F66A16B14200D100BFC1F34215C8
:1014C00001F01F03012606FA03F3012D02D19689CC
:1014D000334006E0022D02D1168A334001E0968A9D
:1014E00033400C12012606FA04F41688344013B176
:1014F0000CB1012000E0002070BD00000010014090
:101500000044004000480040004C004000500040B3
:101510000014014010B50022002340F66A14A142D5
:1015200000D100BF0A1201249440A3B2DC4304801E
:1015300010BD00001CB50446724951F82400012179
:10154000FFF7F6FB704830F81400009001208DF88A
:10155000040000208DF8060001208DF8070002200D
:101560008DF80500694951F824006946FFF70CF928
:101570001CBD654931F81010644A52F820201183CF
:101580007047614931F81010604A52F820205183A9
:1015900070475E4951F8201049695B4A32F81020C3
:1015A00051405A4A52F820205161704730B585B0F9
:1015B00004460D46564951F824000121FFF7B8FBB7
:1015C00001218803FFF7F8FB00208DF810008DF84B
:1015D0001300504830F8140003904F4951F824008C
:1015E00003A9FFF7D1F8012D24D14C4A115D4C4AD3
:1015F000105DFFF759FD4B4830F8140001900020B2
:101600008DF8080008208DF8090001208DF80A00E7
:1016100001A8FFF787F94448005D8DF800000F200E
:101620008DF801008DF8020001208DF80300684656
:10163000FFF7C1FC05B030BD10B50446354A32F89D
:101640001410354A52F82400FFF700F910BD7CB59C
:1016500004460D46354951F82410354A52F82420E5
:1016600041EA02000121FFF763FB2CB9314951F82F
:1016700024000121FFF78FFB2F4B13F814202F4B71
:1016800033F814102E4B53F82400FFF708F92D4BB4
:1016900013F814202C4B33F814102C4B53F824005F
:1016A000FFF7FDF800208DF8060001208DF80700F7
:1016B00002208DF80400264830F814000090022023
:1016C0008DF805001E4951F824006946FFF75CF8C3
:1016D00002208DF804001F4830F8140000901B49C8
:1016E00051F824006946FFF74FF81B4951F82400D0
:1016F0002946FFF75FFD184951F824000121FFF743
:10170000E1FD7CBD2838000820380008400000209A
:101710003C380008383800085000002043380008E2
:101720004238000840380008443800084C380008A7
:1017300050380008483800085C380008583800085D
:101740005C0000205E3800085A3800086000002065
:1017500054380008563800085800002010B50024FE
:1017600007E004EB8401FC4A02EB810001F050FB2E
:10177000641C052CF5D3F94801F04AFBF84801F048
:1017800047FBF84801F044FBF74801F041FBF34800
:10179000F6490860F248F649086010BD2DE9F047A7
:1017A00004460F4615469946DDF82080002607E0DE
:1017B000B95D04F134008155B85D00B902E0761CD2
:1017C000102EF5D300BF002143200155052D00D375
:1017D0000425E5626564201D01F027FB04F1180073
:1017E00001F023FB2461C5F10500A0616462BDE83E
:1017F000F08770B505460E46482001F01CF90446F6
:1018000094B11EB9A80001F016F900E0304620633B
:10181000206B20B9204601F060F9002404E0A90003
:10182000A522206B01F037FF204670BD2DE9FF4F48
:1018300081B0804616469A46DDE90E5BB8F1000F8E
:1018400003D1FEF73BFD00BFFEE7052D01D20120CD
:1018500000E0002018B9FEF731FD00BFFEE730467A
:101860001099FFF7C6FF0446002C59D0701E216B5B
:1018700001EB800929F0070909F0070008B90120E8
:1018800000E0002018B9FEF719FD00BFFEE7009642
:101890002A462046119B0299FFF780FF5246414697
:1018A000484601F047F92060BBF1000F01D0CBF8AA
:1018B000004001F0CEF9AF480068401CAD49086017
:1018C000AD48006840B9AC4804600846006801288B
:1018D0000CD1FFF743FF09E0A848006830B9A648DB
:1018E0000068C06AA84201D8A3480460A448006800
:1018F000401CA3490860A349E06A0968884202D9EC
:10190000A049E06A0860E16A01EB8101924A02EBBA
:101910008100211D01F08CFA012701F0A7F901E0F7
:101920004FF0FF37012F09D19448006830B1924839
:101930000068C06AA84201D201F081F9384605B0BA
:10194000BDE8F08F2DE9F0414FF000088E480068A7
:10195000002874D18D480068401C8C4908600846F6
:1019600006686EBB81480068006808B9012000E085
:10197000002018B9FEF7A2FC00BFFEE77B4807680D
:101980007B480068794908607948076080480068AA
:10199000401C7F49086075480068006808B901204C
:1019A00000E0002020B14FF0FF307A49086006E0E7
:1019B0006E480068C068C46876496068086000BF07
:1019C0007448006886423CD300BF684800680068DD
:1019D00008B9012000E0002020B14FF0FF306D4930
:1019E00008602DE061480068C068C4686568AE4260
:1019F00002D26848056023E0201D01F03FFAA06A8A
:101A000018B104F1180001F039FA5E49E06A09687A
:101A1000884202D95B49E06A0860E16A01EB810112
:101A20004D4A02EB8100211D01F002FA5249E06AA1
:101A30000968C96A8842C8D34FF00108C5E70DE0BC
:101A400000BF4D480068C06A00EB8000424951F871
:101A50002000012807D94FF0010804E04E48006833
:101A6000401C4D4908604046BDE8F08170B5002536
:101A700000264548006818B9FEF720FC00BFFEE7C5
:101A800001F0E7F840480068401E3F4908600846FA
:101A9000006800284BD137480068002847D021E073
:101AA0003048C068C46804F1180001F0E7F9201D4F
:101AB00001F0E4F93349E06A0968884202D9314902
:101AC000E06A0860E16A01EB8101234A02EB8100D0
:101AD000211D01F0ADF92849E06A0968C96A884208
:101AE00000D301261F48006808B9012000E000204B
:101AF0000028D5D02848006868B108E0FFF722FF29
:101B000000B1012624480068401E2349086022488D
:101B100000680028F2D1012E03D020480068012877
:101B200005D1012500201D49086001F088F801F069
:101B30009DF8284670BD10B504460F480068446003
:101B40001248006884422BD20B480168091D0848DE
:101B5000006801F079F930E0EC000020500100202D
:101B600064010020780100208C0100206800002022
:101B70006C00002070000020640000207C00002029
:101B800090000020780000208000002074000020D9
:101B90008C00002094000020840000208800002099
:101BA000F8480168091DF848006801F04DF9F74848
:101BB0000068844201D2F548046010BDF448006812
:101BC000401CF3490860704770B5044600267CB19C
:101BD000FFF7F4FFEF4800680519EA480068001DA8
:101BE00001F04CF92846FFF7A6FFFFF73FFF064636
:101BF0000EB901F024F870BD10B5E548006818B1C1
:101C00000120E549086030E00BE0E448006818B9BD
:101C1000FEF754FB00BFFEE7E0480068401EDF49C6
:101C20000860DE48006800EB8000DD4951F82000C4
:101C300008B9012000E000200028E6D1D749096852
:101C400001EB8101D64A02EB81004168496841609D
:101C500000F1080142688A4202D141684968416046
:101C60004168C968C74A116000BF10BD70B505461C
:101C700000F0EFFF15B9C348006800E028460446AD
:101C8000201D01F0FBF8A06A18B104F1180001F062
:101C9000F5F8211DC34801F0CBF800F0E7FFB94883
:101CA0000068844211D1C048006810B100F0C7FF3D
:101CB0000BE0BC480068BD490968884203D1002098
:101CC000B049086001E0FFF797FF70BD70B50546A9
:101CD00000262C461DB9FEF7F1FA00BFFEE7B14918
:101CE0006069884201D1012000E0002070B1B04954
:101CF000A06A884201D1012000E0002030B9A06A2A
:101D000008B9012000E0002000B10126304670BD76
:101D100070B505462C461DB9FEF7D0FA00BFFEE7A8
:101D200044B398480068844224D000F092FF2046D3
:101D3000FFF7CCFF01281BD1201D01F09FF8974928
:101D4000E06A0968884202D99449E06A0860E16A59
:101D500001EB8101924A02EB8100211D01F068F83C
:101D60008849E06A0968C96A884201D300F067FFC0
:101D700000F07CFF70BD2DE9F041054600262C46A1
:101D80001DB9FEF79BFA00BFFEE701F004F8FEF76D
:101D900095FA07462046FFF799FF012826D17C488F
:101DA0000068F0B97749E06A0968C96A884201D3D6
:101DB000012000E000200646201D01F05FF8774971
:101DC000E06A0968884202D97449E06A0860E16AF9
:101DD00001EB8101724A02EB8100211D01F028F81C
:101DE00004E004F11801724801F022F83846FEF7C9
:101DF0006CFA3046BDE8F08162490968C96A09B1E8
:101E000000200AE066490968012901D9002004E0A0
:101E10005E4909685F4A1268881A7047704700BFB8
:101E2000FFF7FCFF5E480068012801D900F007FFBA
:101E3000FFF7E2FF0446022C19D3FFF7BFFE534819
:101E4000006854490968884201D3012000E000205D
:101E500018B9FEF733FA00BFFEE7FFF7CDFF0446DF
:101E6000022C02D3204600F01DFFFFF7FFFDD7E74D
:101E70001FB50020009001900290034680224DA1E2
:101E800003904E48FFF7D2FC0446012C02D101F02A
:101E9000A7F90446012C0AD1FEF710FA01204249A5
:101EA000086000203B49086000F07AFE04E01CB99D
:101EB000FEF704FA00BFFEE71FBD10B5FEF7FEF9FE
:101EC00000203949086000F0B9FE10BD10B500F0DF
:101ED000C0FE3048046800F0C9FE204610BD70B551
:101EE00000F059FFFEF7EAF905462A48046828463B
:101EF000FEF7EBF9204670BD2C480068704710B51E
:101F0000044624480068204420490968884201D8D2
:101F1000012000E0002018B9FEF7D0F900BFFEE76D
:101F20001C48006820441B49086010BD70B5054678
:101F30000C461DB9FEF7C2F900BFFEE71148016863
:101F40001831284600F080FF0E480068001D00F0A0
:101F500095FF601C30B90B480168091D114800F05D
:101F600067FF05E00B48006806193046FFF7E3FD00
:101F700070BD70B504460D461CB9FEF79FF900BF51
:101F8000FEE71DE0640000206800002094000020AF
:101F900080000020740000208800002078000020CD
:101FA000EC0000208C0100207C000020700000204C
:101FB0007801002049444C45000000001F1E000825
:101FC000834801681831204600F032FF80480068DD
:101FD000001D00F053FF7F48006846193046FFF7A8
:101FE000AAFD70BD70B50646F068C4681CB9FEF75E
:101FF00065F900BFFEE704F1180000F03FFF7648E6
:102000000068A0B9201D00F039FF7449E06A096832
:10201000884202D97149E06A0860E16A01EB8101F6
:102020006F4A02EB8100211D00F002FF04E004F181
:1020300018016C4800F0FCFE6549E06A0968C96A4D
:10204000884201D3012500E00025284670BD10B567
:1020500004461CB9FEF732F900BFFEE7624800688B
:1020600020605C480068606010BD2DE9F0410446C6
:102070000D461CB9FEF722F900BFFEE71DB9FEF7B9
:102080001DF900BFFEE700F0E4FD5248076828682C
:10209000401C08B9002619E05349206809688842A5
:1020A00004D06068B84201D801260FE06068381A91
:1020B0002968884209D228686168791A401A28601C
:1020C0002046FFF7C4FF002600E0012600F0CEFD09
:1020D0003046BDE8F0810120444908607047012086
:1020E0004049096809B1002003E04049096801B18D
:1020F000002070473649086870473D49096809B9AA
:10210000002005E03449096809B9012000E00220F7
:10211000704770B505462C4685B32D49E06A0968BD
:10212000C96A88422FD22A480068C06AC0F10500F7
:10213000A061E16A01EB8101294A02EB810160693A
:10214000884201D1012000E00020C0B1201D00F034
:1021500095FE1F480068C06AE0622049E06A09688D
:10216000884202D91D49E06A0860E16A01EB8101F9
:102170001B4A02EB8100211D00F05AFE03E01448C7
:102180000068C06AE06270BD70B505462C46EDB1CE
:10219000616CE06A884219D0201D00F06FFE606C0F
:1021A000E062E06AC0F10500A0610C49E06A0968DC
:1021B000884202D90949E06A0860E16A01EB8101BD
:1021C000074A02EB8100211D00F032FE70BD0000C5
:1021D00064000020740000208000002078000020AF
:1021E000EC000020780100208C00002088000020F6
:1021F0007C00002070B505460E462C461CB9FEF743
:102200005DF800BFFEE700F024FDD4E90F1220685E
:1022100001FB020060600020A0632068A060E06B0A
:10222000401E226C216800FB0210E0604FF0FF307E
:102230006064A06476B9206908B9012000E000203C
:1022400080B904F11000FFF7CDFE01280AD100F09B
:10225000F6FC07E004F1100000F0DAFD04F12400C0
:1022600000F0D6FD00F002FD012070BD2DE9F04721
:1022700005460E4691464FF00008C5B14C2000F0CF
:10228000DAFB04469CB105FB06F0471C384600F01B
:10229000D2FB2060206838B1E56326640121204626
:1022A000FFF7A8FFA04602E0204600F016FCB8F1B8
:1022B000000F03D1FEF702F800BFFEE74046BDE87D
:1022C000F08710B5044600F0C4FC11E0606A08B95C
:1022D000012000E0002038B904F12400FFF782FE5D
:1022E00018B1FFF7F8FE00E005E0A06C401EA06406
:1022F000A06C0028EADC00BF4FF0FF30A06400F0C3
:10230000B5FC00F0A6FC11E0206908B9012000E04E
:10231000002050B904F11000FFF764FE08B1FFF788
:10232000DAFE606C401E606400E002E0606C002831
:10233000EADC00BF4FF0FF30606400F097FC10BD96
:1023400070B5054600F085FCA86BE96B884201D1A9
:10235000012400E0002400F089FC204670BD70B527
:1023600004460E461546206C38B9206870BB60687C
:10237000FFF70AFF0020606028E07DB93146226C3B
:10238000A06801F043F9216CA0680844A060D4E97A
:10239000011088421AD32068A06017E03146226CF1
:1023A000E06801F033F9216CE068401AE0602168D0
:1023B000E068884203D2216C6068401AE060022D18
:1023C00004D1A06B10B1A06B401EA063A06B401C99
:1023D000A06370BD2DE9FF4182B006460F461D4641
:1023E0004FF0000834461CB9FDF768FF00BFFEE758
:1023F0000FB9206C08B9012000E0002018B9FDF7E2
:102400005DFF00BFFEE7022D02D1E06B012801D184
:10241000012000E0002018B9FDF750FF00BFFEE7E3
:1024200000BF00F016FCA06BE16B884201D3022DC7
:1024300018D12A4639462046FFF791FF606A08B94D
:10244000012000E0002038B904F12400FFF7CAFDA4
:10245000012801D100F0F3FB00F008FC012006B0D8
:10246000BDE8F081049818B900F000FC0020F6E700
:10247000B8F1000F04D16846FFF7E9FD4FF00108FD
:1024800000F0F4FBFFF79AFB00F0E3FB606C401CEC
:1024900008B900206064A06C401C08B90020A0644A
:1024A00000F0E4FB04A96846FFF7DFFDC0B9204651
:1024B000FFF746FF70B104F110000499FFF736FDF5
:1024C0002046FFF7FEFEFFF7D1FA0028A9D100F061
:1024D000B6FBA6E72046FFF7F4FEFFF7C7FAA0E732
:1024E0002046FFF7EEFEFFF7C1FA0020B7E770B510
:1024F00005464C2000F09FFA0446D4B100206060ED
:102500002060A060E060A0630120E0630020206400
:10251000401E6064A06404F1100000F079FC04F136
:10252000240000F075FC00231A4619462046FFF7E8
:1025300051FF1CB9FDF7C2FE00BFFEE7204670BD8B
:1025400070B5064634461CB9FDF7B8FE00BFFEE77D
:10255000FFF7D0FD616888420CD1E068401EE06062
:10256000E06828B900231A4619462046FFF732FFD3
:10257000012500E00025284670BD70B5054600F035
:1025800068FBA86B08B9012400E0002400F06EFB92
:10259000204670BD70B504460D46206870B1216CB0
:1025A000E0680844E0606168E068884201D3206820
:1025B000E0602846226CE16801F028F870BD2DE942
:1025C000FF4383B005460E461F464FF000092C46D8
:1025D0001CB9FDF773FE00BFFEE70EB9206C08B909
:1025E000012000E0002018B9FDF768FE00BFFEE7FB
:1025F00000BF00F02EFBA06B90B3D4F80C803146E6
:102600002046FFF7C7FFB7B9A06B401EA063206844
:1026100010B9FFF76FFD6060206908B9012000E084
:102620000020B8B904F11000FFF7DCFC012811D13B
:1026300000F005FB0EE0C4F80C80606A08B90120C8
:1026400000E0002030B904F12400FFF7CBFC08B112
:1026500000F0F5FA00F00AFB012007B0BDE8F083B6
:10266000FFE7059818B900F001FB0020F5E7B9F184
:10267000000F04D101A8FFF7EAFC4FF0010900F0B8
:10268000F5FAFFF79BFA00F0E4FA606C401C08B919
:1026900000206064A06C401C08B90020A06400F019
:1026A000E5FA05A901A8FFF7E0FC08BB2046FFF703
:1026B00064FFB8B1206830B900F0CBFA6068FFF76A
:1026C00028FD00F0D3FA04F124000599FFF72EFC51
:1026D0002046FFF7F6FDFFF7C9F9002889D100F081
:1026E000AEFA86E72046FFF7ECFDFFF7BFF980E77B
:1026F0002046FFF7E6FDFFF7B9F90020ADE72DE929
:10270000F04106460F4634461CB9FDF7D7FD00BF21
:10271000FEE7FFF7EFFC6168884204D1E068401CE7
:10272000E06001250BE000233A4619462046FFF7FA
:1027300046FF0546012D02D1E068401CE0602846B6
:10274000BDE8F08170B506460D46022200213046F4
:10275000FFF78CFD044604B1A5631CB9FDF7AEFD7F
:1027600000BFFEE7204670BD2DE9F04706468946CA
:1027700017461D4634461CB9FDF7A0FD00BFFEE715
:10278000B9F1000F01D1206C08B9012000E0002050
:1027900018B9FDF793FD00BFFEE7022D02D1E06BF3
:1027A000012801D1012000E0002018B9FDF786FDC5
:1027B00000BFFEE700F0EFFAFDF780FD8246A06B58
:1027C000E16B884201D3022D1CD12A46494620469E
:1027D000FFF7C5FDA06C401C70B9606A08B9012004
:1027E00000E0002058B904F12400FFF7FBFB30B1F2
:1027F0002FB10120386002E0A06C401CA0644FF0B3
:10280000010801E04FF000085046FDF75EFD40462C
:10281000BDE8F0872DE9F0470546884616462C4668
:102820001CB9FDF74BFD00BFFEE7B8F1000F01D169
:10283000206C08B9012000E0002018B9FDF73EFD2A
:1028400000BFFEE700F0A7FAFDF738FD8146A06B58
:10285000E8B141462046FFF79DFEA06B401EA063F5
:10286000606C401C70B9206908B9012000E00020AC
:1028700058B904F11000FFF7B5FB30B12EB10120BB
:10288000306002E0606C401C6064012700E00027BB
:102890004846FDF71AFD3846BDE8F0872DE9F047B8
:1028A00005460F462C461CB9FDF708FD00BFFEE7A4
:1028B0000FB9206C08B9012000E0002018B9FDF71D
:1028C000FDFC00BFFEE700F066FAFDF7F7FC81466D
:1028D000A06B48B1D4F80C8039462046FFF75AFE69
:1028E000C4F80C80012600E000264846FDF7EDFC08
:1028F0003046BDE8F08770B504461CB9FDF7DEFC34
:1029000000BFFEE700F0A5F9A56B00F0AFF928467F
:1029100070BD70B504461CB9FDF7D0FC00BFFEE7E2
:10292000A56B284670BD014600200BE0374A02EB3C
:10293000C00252688A4204D10022344B43F830204E
:1029400002E0401C0828F1D300BF704770B5044670
:1029500025461DB9FDF7B2FC00BFFEE72846FFF78C
:10296000E2FF286800F0B9F8284600F0B6F870BD1C
:1029700070B505461DB9FDF7A1FC00BFFEE7A86BC9
:1029800008B9012400E00024204670BD70B504465B
:102990001CB9FDF793FC00BFFEE7A06BE16B88421A
:1029A00001D1012500E00025284670BD0246002027
:1029B0000BE0164B53F8303033B9144B43F830105A
:1029C00003EBC0035A6002E0401C0828F1D300BFAB
:1029D000704770B505460E462C4600F03AF9606C1B
:1029E000401C08B900206064A06C401C08B900209D
:1029F000A06400F03BF9A06B20B9314604F124003B
:102A0000FFF7B7FA2046FFF75CFC70BDA00100207D
:102A1000424A22F00700424A10600022404B5A60AE
:102A2000404A414B5A6000221A6001463D4A4A60C2
:102A30001A460A6070472DE9F04104464FF000083D
:102A4000FFF7BCF83948006820B9FFF7E1FF012023
:102A50003649086044B1083404F0070020B104F09E
:102A60000700C0F108000444002C31D02D488442F6
:102A70002ED22B4F3846056801E02F462D68686836
:102A8000A04202D228680028F7D1274885421FD0EB
:102A9000386800F10808286838606868001B10284A
:102AA00010D92E196868001B70606C6071681C4832
:102AB00000E00068026852688A42FAD30268326015
:102AC000066000BF1A4968680968081A1849086052
:102AD000FEF7CCFF4046BDE8F08170B506463546AE
:102AE000B6B1083D2C46FFF769F861680C4800E074
:102AF0000068026852688A42FAD302682260046061
:102B00000B4960680968084409490860FEF7AEFF90
:102B100070BD07480068704770470000E80100205A
:102B200098000020F82B0100A0000020AC0000203D
:102B3000A8000020001F4FF080730360001F016099
:102B4000001F0023036014380260001FDB1E0360B7
:102B500020387047A44800684FF47A71B0FBF1F058
:102B6000A2490860084600686FF07F41B1FBF0F0B1
:102B70009F4908609C480068B0FBF0F02D21B1FB34
:102B8000F0F09C490860984800684FF47A71B0FBF7
:102B9000F1F0401E4FF0E0214861072008617047C6
:102BA0001CB59548014609780191FF210246117034
:102BB0000146097800919DF8001001F050018F4AFC
:102BC000117007218E4A116009E08D490968491E7C
:102BD0008B4A11609DF800104906090E00919DF87E
:102BE000001001F080018029EFD0854909680902B1
:102BF000834A11601146098801F4E06111607E4A40
:102C0000019911707F48006840F470007D490860A8
:102C10000846006840F070400860FFF79BFF002006
:102C200079490860FDF718FB7848006840F040409B
:102C300076490860FDF706FB00201CBD70474FF089
:102C4000805070491C390860BFF34F8FBFF36F8FFE
:102C5000704710B5FDF732FB6B480068401C6A49AD
:102C60000860BFF34F8FBFF36F8F10BD10B566487C
:102C70000068401E644908600846006810B90020DA
:102C8000FDF723FB10BD10B5FDF718FBFEF75AFE4C
:102C900020B14FF080505B491C3908600020FDF7DF
:102CA00014FB10BD2DE9F0410446514800688442F0
:102CB00001D94F48046806204FF0E021086108461A
:102CC0008169601E494A126802FB00154948006884
:102CD000854202D9474800682D1A72B6FFF7FFF9FE
:102CE00028B907204FF0E021086162B651E04FF0AB
:102CF000E020456100204FF0E02188610720086155
:102D0000A046B8F1000F04D0BFF34F8F30BFBFF320
:102D10006F8F06204FF0E021086162B64FF0E0208F
:102D2000006900F4803060B130480068401E4FF008
:102D3000E0218969691A401A4FF0E0214861661E56
:102D400012E02A48006860434FF0E0218969471A81
:102D500026480068B7FBF0F6701C24490968484310
:102D6000C01B4FF0E021486100204FF0E021886156
:102D7000FFF76FFF07204FF0E02108613046FFF7B3
:102D8000BEF81A480068401E4FF0E0214861FFF786
:102D90006DFFBDE8F08170B5FDF79AFA0546102D7C
:102DA0000FD305F1E02090F8F043144800788442F6
:102DB00001DB012000E0002018B9FDF77FFA00BF19
:102DC000FEE710481438006800F4E0600C49096818
:102DD000884201D8012000E0002018B9FDF76EFA02
:102DE00000BFFEE770BD0000D8000020B400002046
:102DF000B8000020BC00002000E400E0C00000207B
:102E0000C400002020ED00E0B000002034EF00E01E
:102E100000F1080141604FF0FF31816000F10801CD
:102E2000C1600161002101607047002101617047AC
:102E300042684A6093688B6093685960916008614A
:102E400003685B1C0360704710B502460B685C1C8E
:102E50000CB9106907E002F1080000E0406844681E
:102E600024689C42FAD944684C604C68A160886030
:102E700041600A611468641C146010BD0146D1E908
:102E800001309860D1E9010358600A6950688842AE
:102E900001D188685060002008611068401E1060F1
:102EA000106870472DE9F04104460D4616461F464E
:102EB0004FF0000865602461B5420CD8F01BA16991
:102EC000884202D34FF0010811E0211DF04800684C
:102ED000FFF7BAFF0BE0BE4204D2BD4202D34FF06F
:102EE000010804E0211DEB480068FFF7ADFF4046F4
:102EF000BDE8F0812DE9FE4305460E4617461C4607
:102F0000DDF828804FF00009E348006808B3009618
:102F100001970295ACB9FFF7F0F8012808D100231A
:102F200042466946DC480068FFF754FA814610E0E3
:102F300000231A466946D8480068FFF74BFA8146D5
:102F400007E0002322466946D3480068FFF70CFCDF
:102F500081464846BDE8FE832DE9F84381462BE0D3
:102F6000CC480068C0680568CA480068C068C46882
:102F7000201DFFF783FF2046616A8847E06901282A
:102F80001AD1A0694619AE4207D966602461211D95
:102F9000C0480068FFF758FF0EE0002003462A46AD
:102FA000014600902046FFF7A5FF07461FB9FDF731
:102FB00085F900BFFEE700BFB6480068006808B9A1
:102FC000012000E000200028CAD0B248D0F80080DC
:102FD000AF480068AF490860AD48C0F80080BDE860
:102FE000F88370B50446FEF771FF0546AB480068EC
:102FF000854206D2A9480068FFF7AEFF0120206095
:1030000001E000202060A5480560284670BD70B52D
:1030100086B053E0059C606908B9012000E00020FB
:1030200010B9201DFFF72AFF02A8FFF7DAFF0546B7
:10303000039830B1012826D0022825D003283BD19F
:1030400036E00498A269811803462A462046FFF715
:1030500029FF012816D12046616A8847E0690128C6
:1030600010D1002000900498A1694218002319464D
:103070002046FFF73FFF06461EB9FDF71FF900BFC8
:10308000FEE700BF19E018E00498A061A06908B14C
:10309000012000E0002018B9FDF710F900BFFEE79D
:1030A000A06941192B462A462046FFF7FBFE04E0A3
:1030B0002046FFF712FD00E000BF00BF00231A46C4
:1030C00003A975480068FFF77AFA0028A2D106B074
:1030D00070BDF8B505460F466E480068C068C46804
:1030E000201DFFF7CBFEE069012817D1A069411927
:1030F0002B463A462046FFF7D5FE01280ED1002088
:1031000003462A46014600902046FFF7F3FE064696
:103110001EB9FDF7D3F800BFFEE700BF2046616A85
:103120008847F8BDF8B504460E46FEF747FD6846E9
:10313000FFF757FF05460098A0B946B9AC4206D83C
:10314000FEF794FC29462046FFF7C3FF0CE0611B05
:1031500051480068FFF73DFCFEF788FC20B9FFF7F7
:103160006EFD01E0FEF782FCF8BD0146494A126897
:1031700012680AB9012200E000220A600A6822B936
:10318000444A1268D268106800E00020704708B511
:1031900000BF6846FFF7E9FF044620460099FFF7A5
:1031A000C1FFFFF734FFF4E710B5FFF752FD3A48CF
:1031B000006890B93A48FFF72BFE3A48FFF728FE1F
:1031C00037483449086037483149086000220C21EB
:1031D0000A20FFF74BF830490860FFF747FD10BDA4
:1031E0001FB50024FFF7E0FF2B48006868B10020FE
:1031F0000223CDE90030029003464FF480722AA1E9
:1032000003902B48FEF712FB04461CB9FDF756F855
:1032100000BFFEE7204604B010BD2DE9F04706468A
:103220000D4617469846DDF820904DB900240DB1A3
:10323000012000E00020A0B9FDF740F800BFFEE744
:103240002820FFF7F8FB04465CB1FFF7ADFF2660CE
:10325000A561E761C4F82080C4F82490201DFFF721
:10326000E4FD2046BDE8F08770B504462646FFF72A
:10327000F0FC706908B9012000E0002080F0010531
:10328000FFF7F4FC284670BD01460A46106A7047F5
:10329000CC000020C8000020D0000020D400002076
:1032A000E02D0120F42D0120546D7220537663002F
:1032B0008F3100080948804709480047FEE7FEE7CC
:1032C000FEE7FEE7FEE7FEE7FEE7FEE7FEE7FEE7D6
:1032D00004480549054A064B70470000D1330008F1
:1032E00089010008682E012068340120683001201F
:1032F000683001200CB500200190009076480068ED
:1033000040F480307449086000BF7348006800F4DE
:10331000003000900198401C0190009818B9019865
:10332000B0F5A06FF1D16C48006800F4003010B126
:103330000120009001E0002000900098012846D173
:1033400065484030006840F0805063494031086073
:103350006248006840F44040604908605E480830B8
:1033600000685D49083108600846006840F4004084
:1033700008600846006840F4A05008605848091FDB
:103380000860081F006840F08070091F086000BFD7
:103390005148006800F000700028F9D040F2056044
:1033A000504908604C480830006820F003004A4942
:1033B000083108600846006840F00200086000BF5D
:1033C00045480830006800F00C000828F8D10CBD12
:1033D00010B54548006840F47000434908603E4815
:1033E000006840F001003C49086000203A4908317B
:1033F0000860394800683D490840374908603C4842
:10340000091D0860081F006820F48020091F08605B
:10341000002031490C310860FFF76CFF4FF000606D
:1034200031498039086010BD70B5002000220223A8
:1034300000240221284D08352D6805F00C0020B12C
:10344000042806D0082834D107E02A4D2A4E3560DA
:1034500033E02A4D284E35602FE01F4D2D1D2D687D
:10346000C5F380541C4D2D1D2D6805F03F0154B14E
:10347000224DB5FBF1F5184E361D3668C6F3881699
:1034800005FB06F209E01B4DB5FBF1F5124E361DAA
:103490003668C6F3881605FB06F20F4D2D1D2D6804
:1034A000C5F301456D1C6B00B2FBF3F5124E3560A0
:1034B00003E0104D104E356000BF00BF064D0835CB
:1034C0002D68C5F303150E4E705D0B4D2D68C5407C
:1034D000094E356070BD00000038024000700040A9
:1034E00008544007003C024088ED00E0FFFFF6FE74
:1034F000103000240024F400D800002000127A00CC
:10350000DC00002000BF4FF0FF3109480068FFF7E2
:10351000F6F80120FEF73DF806480068FEF754FB78
:103520000120FEF736F802480068FFF709F8EAE7DD
:10353000040000200000002000BF4FF0FF310948C8
:103540000068FFF7DCF80220FEF723F80648006861
:10355000FEF73AFB0220FEF71CF802480068FEF76F
:10356000EFFFEAE7040000200000002000BF4FF05A
:10357000FF3113480068FFF7C2F80020FEF709F892
:1035800010480068FEF720FB0020FEF702F8FEF767
:103590009DFC0D4908600D4840680D4908600821F0
:1035A0000C48FDF76DF96420FEF70EFB0821094871
:1035B000FDF768F902480068FEF7C2FFD7E7000090
:1035C000040000200000002008000020001000E09F
:1035D0000C0000200000024000BF4FF0FF310948FE
:1035E0000068FFF78CF80320FDF7D3FF064800685A
:1035F000FEF7EAFA0320FDF7CCFF02480068FEF769
:103600009FFFEAE70400002000000020032A40F2A8
:10361000308010F0030C00F0158011F8013BBCF174
:10362000020F624498BF11F801CB00F8013B38BF8C
:1036300011F8013BA2F1040298BF00F801CB38BF9A
:1036400000F8013B11F0030300F03080083AC0F0AD
:10365000088051F8043B083A51F804CBA0E8081060
:10366000F5E7121D5CBF51F8043B40F8043BAFF393
:103670000080D20724BF11F8013B11F801CB48BFED
:1036800011F8012B24BF00F8013B00F801CB48BF23
:1036900000F8012B704702F0FF0343EA032242EADD
:1036A000024200F037B870477047704710B5203AB3
:1036B000C0F00B80B1E81850203AA0E81850B1E8EB
:1036C0001850A0E81850BFF4F5AF5FEA027C24BFA1
:1036D000B1E81850A0E8185044BF18C918C0BDE898
:1036E00010405FEA827C24BF51F8043B40F8043B61
:1036F00008BF7047D20728BF31F8023B48BF11F816
:10370000012B28BF20F8023B48BF00F8012B70476F
:103710004FF000020429C0F0128010F0030C00F0FA
:103720001B80CCF1040CBCF1020F18BF00F8012B78
:10373000A8BF20F8022BA1EB0C0100F00DB85FEA46
:10374000C17C24BF00F8012B00F8012B48BF00F812
:10375000012B70474FF0000200B513469446964681
:10376000203922BFA0E80C50A0E80C50B1F1200194
:10377000BFF4F7AF090728BFA0E80C5048BF0CC042
:103780005DF804EB890028BF40F8042B08BF7047A0
:1037900048BF20F8022B11F0804F18BF00F8012B12
:1037A0007047754600F02CF8AE4605006946534652
:1037B00020F00700854618B020B5FFF789FDBDE869
:1037C00020404FF000064FF000074FF000084FF088
:1037D000000B21F00701AC46ACE8C009ACE8C00919
:1037E000ACE8C009ACE8C0098D46704710B5044686
:1037F000AFF300802046BDE81040FCF70EBD00008E
:1038000000487047082E012001491820ABBEFEE792
:103810002600020070474FF04070E1EE100A70473A
:103820000010008000400020080000000800000098
:103830000800000008000000010000000100000076
:103840000100000006000000000004000400000069
:1038500004000000000400080A000B000700070035
:103860008038000800000020EC000000C4010008BF
:103870006C390008EC0000207C330100E0010008F6
:103880005E010000000000000000000000000000D9
:103890000000000000000000000000000000000028
:1038A0000000000001000000000000000000000017
:1038B00000000000010203040102030406070809D6
:1038C000000C0240000C0240000C0240000C0240C0
:1038D00000000240000000000048004000080240D4
:1038E000000802400000000000000000000000008E
:1038F00000000000000000000000000000000000C8
:1039000000000000000000000000000000000000B7
:1039100000000000FFFFFFFF0000000000000000AB
:103920000000000000000000F82B01000000000073
:10393000AAAAAAAA000000000000000000000000DF
:103940000000000000000000000000000000000077
:103950000000000000000000007A030A00000000E0
:0C39600000000000010203040607080933
:040000050800018965
:00000001FF
